:020000040800F2
:1000000090430020D900000845960008816A000846
:1000100000000000000000000000000000000000E0
:1000200000000000000000000000000095C0000873
:1000300000000000000000005F9A0008E9E20008EC
:10004000EB000008EB00000843AC0008EB000008E0
:10005000EB000008F52C0008052D0008152D000800
:10006000EB000008C92A0008D92A0008E52A000880
:10007000D50C0008EB000008EB000008EB000008BE
:10008000EB000008EB000008EB0000080000000097
:10009000EB000008EB000008EB000008EB00000894
:1000A000EB000008EB000008EB000008EB00000884
:1000B000EB000008DDAB000800000000EB000008CA
:1000C0000448854600F0C8FD004800470D060108B9
:1000D000C046C0469043002004488047044800477B
:1000E000FEE7FEE7FEE7FEE7FEE7FEE78DE4000839
:1000F000C100000830B50B46014600202022012433
:1001000009E00D46D5409D4205D31D469540491B4B
:100110002546954040191546521E002DF1DC30BD94
:1001200070B500242546002801DA01244042002948
:1001300001DA01254942FFF7DDFFAC4200D0404221
:10014000002C00D0494270BDF0B51FB40646002017
:1001500082B005464024019100901BE0019922469F
:100160000F46304600F0F0FB049A059B801A994137
:1001700010D310461946224600F0D6FB361A8F419E
:100180000197224601200021009F00F0CDFB381886
:100190004D4100902046641E0028DFDC019B009842
:1001A0002946324607B0F0BD0549064A0868504363
:1001B000054A801808604008704701490860704788
:1001C000B00100206D4EC6413930000003460B439C
:1001D0009B0703D009E008C9121F08C0042AFAD2FD
:1001E00003E00B780370401C491C521EF9D2704783
:1001F000D2B201E00270401C491EFBD270470022BF
:10020000F6E710B513460A4604461946FFF7F0FF15
:10021000204610BDCAB2401E4178401C8A4202D01E
:100220000029F9D100207047421C0178401C0029A8
:10023000FBD1801A704703460A780270401C491CA3
:10024000002AF9D118467047F8B502464A40D40F43
:1002500042004B0052085B089A4202D2024608460E
:1002600011464A0023D0C30D4A00DDB2120EAD1A6A
:10027000202D35DA49020126490AF6058A19002C93
:1002800000D0524220214F1B1146B9402A4110187C
:10029000C20D9A4221D0002C17D0012D08DCDA05BE
:1002A000801AD20F8019D207DBB200F079FBF8BDBB
:1002B000DA05801A012340001B06C01880185A4234
:1002C0008018CA0F1043490007E04908C2071143CC
:1002D000DA05801A80194008801800F059FBF8BD33
:1002E00061000122511A001BF7E70122D207514099
:1002F000AAE70122D2075040A6E7024670B54A405D
:10030000D30FDB0740002DD04A002AD0010E140E77
:10031000000212020919400A520A8418E501044633
:100320005443000A120A2E045043A4194219200C07
:10033000C543AA18120C0125AD03521C5219120410
:100340007F39240400D0521C104301D44000491EC0
:10035000C2B20C06C0092018401C4008802A02D0F6
:1003600003E0002070BD40084000002900DA0020B2
:10037000184370BD70B502464A40D50F40004A0090
:10038000ED0740085208002814D0002A12D0C40DEE
:10039000D30D41020120C0055202490A520AE41A53
:1003A000091812187D34914201D3641C00E0490001
:1003B000002C01DA002070BD0023914201D3891A7C
:1003C0000343400849000028F7D100290AD0914290
:1003D00002D10121C90705E0914201D2012101E0CA
:1003E0000121C943E005C018401900F0D1FA70BDE1
:1003F000F0B507460846584087B0C00F0490480043
:100400000E46590040084908BC1A884105D23846B2
:1004100031461E4617460B46024658004008104318
:100420004DD0300D039040055900400D490D059009
:10043000401A0290402873DA18030121000B0905C5
:100440000843019004980092002806D01146019AB2
:1004500049420020904100910190029840210A1ADF
:100460000199009800F060FA05460C466B4607CBF0
:1004700000F07BFAC0197141039A0E0D0023D717C3
:1004800056401A467A40164344D0049A002A2DD08A
:10049000029A012A039A15DC1205C01A914101261D
:1004A0003605001C7141D20F059ED20700930192C0
:1004B00002962A46234600F0B9FA07B0F0BD384646
:1004C0003146FAE71605234A0F46B218C01AB7415B
:1004D00001210905001C4F4100187F4111461818E1
:1004E0007941E20F10436D19644113E0E2076D0892
:1004F00015436408C2071443039A01261205C01A63
:1005000091413605001C7141CE074008304349082F
:10051000C01851412A46234600F07BFACDE7FFE799
:10052000049801224000C117121A00238B4104983D
:100530003146C417381AA141EEE730B40124E4076C
:10054000634030BC54E730B40124E407614030BC60
:100550004EE700000000E0FFF0B51FB488B00B9933
:100560000998002448400999C00F49004908099199
:10057000C0070B990090490049080B910999089808
:10058000A64608431CD00B990A98084318D009982E
:1005900001244000420D4800410D09982405000344
:1005A000000B204309900B980003000B20430B9095
:1005B00050181C494018002201901446104605E0CE
:1005C000002001460DB0F0BD032801DA034600E02B
:1005D00003239C46C11A0AAE0AE05F0008ADED5B3A
:1005E0004F00F75B7D430027AA187C41491C5B1E26
:1005F0006145F2DD410004AB5A522104120C0A435A
:10060000240C401C0828DFDB0198029000997046FA
:1006100001910090059B049A0799069800F006FA4C
:10062000D0E700000DFCFFFFF0B50C465C4085B044
:10063000E40FE40703944C00002664085900944634
:10064000490802460296224321D062460A431ED040
:100650006200570D4A000E032303550D0124024684
:100660002C492405781B1B0B360B401823432643CB
:10067000614600901C46501AB44103D30098401CB8
:10068000009002E0921800985B41002803DA0020F5
:10069000014605B0F0BD0020012109050746864648
:1006A00011E064461D46141BB54106D36546521B36
:1006B000B341744607430C43A646CD07400849089A
:1006C000284392185B4105460D43EAD11046184372
:1006D00013D06046194650407140084306D060462A
:1006E000101AB34106D20122002306E000220123A2
:1006F000DB0702E00122D243531000987446010543
:10070000381C6141029C039D0019694100F081F988
:10071000BFE70000FD03000070B54B005B0803431A
:100720000BD04B005C0D002633466542B341D41715
:10073000AD1AA34102DB0020014670BD120530183E
:10074000514170BDC217C10F504010B54018CA07C3
:100750009623002100F024F910BD10B50022962345
:10076000114600F01DF910BD0EB5C217C10F504063
:10077000CA0740180021054B0293019200910A46D6
:100780000B4600F053F903B000BD00003304000035
:100790000EB505490291002100910A460B460191D0
:1007A00000F044F903B000BD33040000C20F410063
:1007B00040020123400ADB05D207090EC0187F2939
:1007C00001DA00207047962903DC9623591AC840A5
:1007D00001E096398840002AF4D040427047410039
:1007E00040020122400AD205090E80187F2901DA51
:1007F00000207047962903DC9622511AC8407047A2
:10080000963988407047000070B5CD0F4A00090343
:100810000123090B1B0519430B4BED070024520D57
:100820009A4201DA002070BD074B34339A4203DC50
:100830009A1A00F089F802E00449511888402C43C4
:10084000F1D0404270BD0000FF030000CDFBFFFF70
:100850004A0009030123090B1B051943094B10B575
:10086000520D9A4201DA002010BD064B34339A42F1
:1008700003DC9A1A00F068F810BD0349511888404B
:1008800010BD0000FF030000CDFBFFFFC20FD20729
:10089000400040080BD0C10D0723DB01C9184002FE
:1008A0000905400A1143C208400711437047002060
:1008B0000146704710B5002904DB0124E4074042DB
:1008C0008C412146002B04DB1C460123DB075242EE
:1008D000A341994200D1904210BD0000CB0FDB072D
:1008E000490010B5490802460A4307D00A0D0724FB
:1008F0000903E401090B121B002A01DC002010BDD2
:10090000C900440F0C43C100E018D205801800F064
:100910003FF810BD0122D207002800DB101A002981
:1009200000DB511A8142704710B5202A04DB0146D2
:10093000203A9140002010BD914020239C1A03468C
:10094000E3401943904010BD10B5202A04DB08464F
:10095000203AD040002110BD0B46D340D040202487
:10096000A21A91400843194610BD10B5202A06DB93
:10097000CB170846203A1041C1170B4306E00B463F
:100980001341D0402024A21A91400843194610BDBB
:10099000002904DA401C490001D14008400070479A
:1009A00070B40024050C05D11024000402D10029E4
:1009B00021D01124050E01D100020834050F01D108
:1009C0000001241D850F01D18000A41C002801DB3B
:1009D0004000641C002908D020252E1B0D46F54040
:1009E000A14000D001212943084301061B1B000A36
:1009F000DB1D02D5002070BC7047DB05181880187D
:100A00000029F8DA401C4900F5D170BC40084000CC
:100A1000704710B5002B08DA0024401C6141921881
:100A20005B411A4301D14008400010BDF0B51FB42E
:100A300082B005460C0003D008460EF039FA02E0F9
:100A40000EF036FA20300246009021462846FFF785
:100A50006BFF049B059A04460F4618431143084355
:100A600014D0184610431BD0009840210A1A18468B
:100A70000599FFF769FF05460E46009A0599049807
:100A8000FFF752FF084305D0012004E02046394615
:100A900007B0F0BD0020C11705430E432C43374378
:100AA00000990E986305401A7905E40A00220C4368
:100AB000FD0A0A3002D500200146E9E701051019B8
:100AC00069410C9C0D9D00196941FFF7A2FFDFE70A
:100AD000FEB500231A461B1A8A4103DB002001469B
:100AE00003B0F0BD4A000D0301212D0B0905520D85
:100AF0000D43D10702D100186D41521E5110FF3134
:100B0000FF310131002704463E46384600970191E7
:100B10000246012100200905FFF716FFC3197141A4
:100B2000F818324684468E464A4161462846611A84
:100B3000904104D36046241A954176461F462419F5
:100B400000986D41401C00903428E1DDF9193046D1
:100B50007041091BA84103D20022D243134601E091
:100B60000022134601980105381C7141FFF751FF1F
:100B7000B6E70000F8B50546480040080C46284393
:100B800004D06000184A400D904201DD2846F8BDAF
:100B900015493539884210DC88420BDB290D2003CA
:100BA00008432903014305D0E00F1049C00741184D
:100BB0000020F8BD00200146F8BD161A4020821B17
:100BC00028462146FFF7B0FE0746009128462146F9
:100BD0003246FFF7B9FE3A46009BFFF71AFF32464E
:100BE000FFF7A2FEF8BD0000330400000000F03F54
:100BF0004A0009030123090B1B0519430A4B10B5D1
:100C0000520D9A4202DA0020014610BD064B3433E1
:100C10009A4203DC9A1AFFF797FE10BD034BD218D5
:100C2000FFF782FE10BD0000FF030000CDFBFFFFB9
:100C300010B5002904DB0124E40740428C41214621
:100C4000002B04DB1C460123DB075242A3418B42ED
:100C500000D1824210BD0000064C0125064E05E081
:100C6000E36807CC2B430C3C98471034B442F7D3CD
:100C7000FFF72AFA4C2101087C21010870B58C1875
:100C80000578401C6B075B0F01D10378401C2A11CB
:100C900006D10278401C03E006780E70401C491C07
:100CA0005B1EF9D12B0705D40023521E0DD40B7007
:100CB000491CFAE70378401CCB1A921C03E01D780C
:100CC0000D70491C5B1C521EF9D5A142D8D30020DF
:100CD00070BD000010B5024802F05FFD10BD0000BD
:100CE000D01D002070B5044600688168490720D5F2
:100CF000816810264907002905DA8168890702D42E
:100D000081683143816003F0F5FA05460DE003F098
:100D1000F1FA401B0A2808D9A06D3043A065E06DA8
:100D200001210843E065084670BD206880684007DF
:100D3000EDD4002070BD10B50146806A826D50234D
:100D40001A420AD1816D0122520211438165016864
:100D5000CA681205920F05D020E0006D426B08466C
:100D6000904710BD026A002A18D10A68120715D5EB
:100D70008A6853070122002B09DB4B680C24A3432C
:100D80004B60816D130299431143816506E0816DCB
:100D9000202319438165C16D1143C16502F09CFB9D
:100DA00010BD10B5806A816D402211438165C16D0F
:100DB00004221143C16502F0EDFC10BD10B5806A3C
:100DC00002F00EFC10BD000038B504460648054987
:100DD0000068FFF78FF9604300E0401E0090002894
:100DE000FBD138BD40420F004C000020F8B504464E
:100DF000006881688907890F012925D10168C90721
:100E000022D08168052211401025012601290FD129
:100E1000816802221143816021680320086003F089
:100E200069FA07460CE003F065FAC01B0A2807D9E7
:100E3000A06D2843A065E06D3043E0650120F8BD5A
:100E400020688068C007EED10020F8BDF8B50446E0
:100E5000006881688907890F012902D10168C907E3
:100E600022D18168114A10261140012500290ED196
:100E70008168294381600120FFF7A6FF03F03AFA59
:100E800007460CE003F036FAC01B0A2807D9A06D0C
:100E90003043A065E06D2843E0650120F8BD20687F
:100EA0000068C043C007EDD10020F8BD17000080E6
:100EB0001CB50F49002008700E4800900E480190A4
:100EC00069460E4802F0BEFA00280ED101200090BB
:100ED00001906946094802F0B5FA002805D10021C1
:100EE000064802F059FA002801D001F041FF1CBD6C
:100EF000600100201000001001100000D01D002033
:100F0000F0B589B00C4607461022002168460FF064
:100F100077FC6946224608460EF0E5FC68460078F4
:100F200087260106684600290FDA00214318425C33
:100F30005B785200DB091A434254491C0F29F5DB48
:100F4000C17B0246490071400DE000214318425C1C
:100F50005B785200DB091A434254491C0F29F5DB28
:100F6000C17B02464900D173E21DF9325169102953
:100F700012D0017809061BD500214518435C6D7815
:100F80005B00ED092B434354491C0F29F5DBC17B62
:100F900003464900714019E000216218FF32013216
:100FA0005378455C491C6B4053701029F5DB26E0F3
:100FB00000214518435C6D785B00ED092B434354D9
:100FC000491C0F29F5DBC17B03464900D973E11D9C
:100FD00055698023FA316B54002500E05D54536954
:100FE0005B1C5361102BF9D300216218FF320132D0
:100FF0005378455C491C6B4053701029F5DB002188
:1010000062181046FF32E0300132437C5278491CAE
:10101000534043741029F3DB21461022F13104A818
:101020000FF0D6FB2246394604A80EF05CFC1022D5
:10103000002168460FF0E4FB09B0F0BD10B504468E
:1010400010220021F1300FF0DBFBFF2000211530D2
:101050000151F02220460FF0D3FB10BD0B4610B516
:101060000246102118460EF069FC10BDF0B504468A
:10107000FF308BB00F4601300890E11D4069FA3116
:101080000091103915460791002843D010210E1AFF
:10109000AE4200D316460099B2B2401839460FF05E
:1010A00097FB0898089940698019486110283AD33D
:1010B000B54238D0002162181046FF32E0300132CC
:1010C000437C5278491C534043741029F3DB079941
:1010D000224608460EF007FCBF19AD1B1AE000209F
:1010E0002118E0314A7C3B5C401C5A404A7410286D
:1010F000F6DB102202A807990FF06AFB02A922462C
:1011000008460EF0F0FB102202A907980FF060FBD2
:10111000103D1037102DE2D8AAB2394600980FF0D2
:1011200057FB089845610BB0F0BD000038B50F497A
:10113000887C4A7C904218D2401C8874C00714D026
:1011400022206946094C08708034FF2160682D31E7
:101150000A5C69468A70F9210A5C69464A7000781F
:101160000AF068FC6168E031487638BDA8070020C5
:1011700000B589B005A168460DF086FE7D22D2003B
:1011800008A1684600F036FD09B000BD41542B515E
:101190004346473D2272726361626F7274222C3142
:1011A0000D0A00004F4B0000F0B5174885B082785B
:1011B00016A168460DF068FE7D26F600324617A19E
:1011C000684600F017FD044605F056F9054605F09F
:1011D00053F9134F10E0FEF7E7FFC821FEF7A0FF19
:1011E0000846643002F03DFF32460CA1684600F02C
:1011F00001FD044605F040F9012C02D0401BB84225
:10120000E9D3204605B0F0BD1801002041542B5110
:10121000494143543D25640D0A0000004F4B000036
:101220003075000000B5A1B0FF222D32694609A03B
:1012300000F038FD0A480BA1827819A80DF024FEB1
:1012400019A968460CF0B4FF002800D0012021B095
:1012500000BD000041542B51494143543F0D0A0049
:10126000180100202B51494143543A2025642C3168
:101270000000000000B507488FB0827806A16846DC
:101280000DF002FEFF222D320DA1684600F0B2FCE7
:101290000FB000BD1801002041542B514943534762
:1012A000503D25642C312C226E62696F742E696F5B
:1012B00074222C22222C22222C310D0A0000000044
:1012C0004F4B000000B589B0024606A168460DF0FC
:1012D000DBFDFF222D320AA1684600F08BFC09B02D
:1012E00000BD000041542B515552434346473D2217
:1012F000757263706F7274222C25730D0A000000E2
:101300004F4B0000F0B5074689B029A010F036FB1E
:101310002FA010F033FB05F0AFF8064605F0ACF84F
:10132000054600200446089032E04B25ED002A4691
:1013300028A12BA000F05EFC08902A4669462BA04D
:1013400000F0B0FC23A168460CF032FF002807D063
:101350000120089026A010F011FB1DA010F00EFB3C
:10136000052C02D30898012808D0FEF71DFFC821DC
:10137000FEF7D6FE0846643002F073FE05F07CF8F6
:10138000641CE4B20546052C05D20898012802D059
:10139000A81BB842C9D378211848FEF730FFA81B14
:1013A000B84202D3022009B0F0BD0898FBE7000064
:1013B0005374617274656420636F6E6E65637469E3
:1013C0006E6720746F206F70657261746F720000B9
:1013D0000D0A00002B43474154543A2031000000CD
:1013E00041542B43474154543F0D0A000000000074
:1013F0002D20436F6E6E656374656400581A00207B
:1014000010B5024805F0B2FB10BD000000480040D6
:1014100000B5074885B0827806A168460DF034FD16
:10142000FF222D3207A1684600F0E4FB05B000BDA5
:101430001801002041542B514944454143543D2556
:10144000640D0A004F4B000070B5154C2068154D17
:101450008001C00F00281CD0134EB0792158022201
:10146000914321506068110608436060A96D686D62
:10147000193E401819218901FEF752FE6965F07F77
:101480002158490849002150084881688022914329
:101490008160296D686D884201D000F08BFA70BDC3
:1014A00000000240EC1900204020010800480040E4
:1014B000EFF3108172B6054AD368D05C5B1C5B0702
:1014C0005B0F81F31088D36070470000EC1300209D
:1014D000F8B5304CE0694006C00F09D020684006DE
:1014E000C00F05D0402020620021202005F030FFF1
:1014F00000200090E0690125C002C00F09D0A0685B
:101500004002C00F05D0280520620121102005F0FF
:101510001FFFE06901268006C00F00280AD020685E
:101520008006C00F06D0606A0021C5B21020009668
:1015300005F00EFFE069C007C00F0BD1E06980071E
:10154000C00F07D1E0690007C00F03D1E069400771
:10155000C00F09D0266202202062082020620420E9
:1015600020620125009602E00098012811D10A4866
:101570008168455481688268491C4907490F8A423D
:1015800001D0816002E082680D21815400200AF0C0
:10159000B1FCF8BD00480040EC130020F0B54F4E00
:1015A00091B0B06B012189040843B06348110590E4
:1015B000062009900227012500240520069705A989
:1015C00008950794000702F0C7FDA80305900520C1
:1015D00005A9000702F0C0FD4049EA024031C86891
:1015E00003239B0298431043C860B06BD1010843AA
:1015F000B063002202211D2002F00EFF1D2002F028
:10160000F3FE4B20C0010A900C20354E0E900B9437
:101610000C940D940AA90F94304605F0B3FA306883
:1016200038433060306828433060F0698002C00F72
:10163000FBD0F0694002C00FFBD030682021084386
:101640003060B06809040322120590430843B0607B
:10165000B06849000843B06030688F133843306089
:10166000B0682843B0601F4900200AF0D1FB402039
:10167000019500900325029469461B48039502F0EA
:101680006BFD00224021184802F02DFE052636078A
:1016900069463046009702F05FFD00223946304629
:1016A00002F021FE3F0169460F48009702F054FD09
:1016B000002239460C4802F016FE01946A46F910E1
:1016C00030460395029404F0E5FC08A010F056F9AA
:1016D0000AA010F053F911B0F0BD00000010024054
:1016E00000480040FD1900080004005057414954CB
:1016F00020464F5220504F57455200000D0A00001F
:1017000010B586B014216846FEF779FD03200190DC
:10171000002005240121240702906A4689032046FF
:1017200004F0B8FC01216A464903204604F0B2FCEB
:1017300006B010BDEFF3108172B605488268C0682C
:10174000824201D0012000E0002081F31088704720
:10175000EC13002010B5012105204902000702F01A
:10176000BDFD002800D0012010BD000010B5044AC6
:1017700001211170014678220248FEF727FD10BDB5
:1017800018010020581A002010B588B0FFF7E2FFBA
:1017900000282FD10A2002F064FC224C01224021B3
:1017A000204602F0A0FD20A000F01AFA1F490120F7
:1017B0004870E120800002F054FC002240212046C5
:1017C00002F091FD1AA010F0D9F81BA010F0D6F885
:1017D000032002F046FC1E22694613A000F062FAC4
:1017E000694616A010F0CAF813A010F0C7F81A48FE
:1017F00002F037FC19A168460CF0DAFC002802D090
:10180000022008B010BD19A168460CF0D1FC0028D8
:1018100003D1FFF79FFF002801D00020F1E703204C
:10182000EFE7000000040050000000001801002055
:101830002D20446F6E6500000D0A00002D20506FB2
:1018400077657220646F776E20737472696E67209B
:10185000323A202573000000C409000050534D2087
:10186000504F57455220444F574E00004E4F524D57
:10187000414C20504F57455220444F574E000000D6
:1018800030B589B00A2002F0ECFB344C0122402133
:10189000204602F028FDFF20F53002F0E2FB002296
:1018A0004021204602F01FFD0A2002F0DAFB01224F
:1018B000052514022D072146284602F014FDFF20BD
:1018C000913002F0CEFB00222146284602F00BFDAB
:1018D00023A010F053F826A010F050F8254A26A1B6
:1018E00026A000F087F924A010F048F820A010F0FE
:1018F00045F8234A23A121A000F07CF921A010F093
:101900003DF81BA010F03AF87D24E40022461FA108
:101910001FA000F06FF901281DD122461BA11FA0B6
:1019200000F068F9012816D100F0A2F8012812D1C0
:10193000224669461BA000F0B5F905461BA1684682
:101940000CF036FC002805D0224669460BA000F0BA
:10195000A9F90546284609B030BD00000004005032
:101960005741495420464F5220504F57455200008E
:101970000D0A00001027000052445900000000002A
:1019800060EA000041505020524459004F4B000083
:1019900041542B434D45453D310D0A0041540D0A3C
:1019A00000000000415445300D0A0000415445300C
:1019B00000000000F8B5EFF3108672B60D4D286DEB
:1019C000012187B2686D84B2202005F0C1FC0A486D
:1019D000A74201D9391B02E019218901091BA96518
:1019E000A96D001989B2103000F0E4FA86F310886E
:1019F000F8BD0000EC190020EC130020F8B51A4FD8
:101A000000261A4C0FE0FFF753FDA1680128785417
:101A10000ED00D2812D00A2810D03E2811D07729D8
:101A20001CD0491CA160FFF785FE0128EBD0F8BD52
:101A30000D48A168FEF7E3FBA660F8BD0029F2D0CF
:101A40007E54A66060780D46002802D00648FFF755
:101A50008DFE29460448FEF7D2FBE4E70248FEF774
:101A6000CEFBA660DFE70000741300201801002001
:101A700010B5FF222D3202A102A000F0BBF810BD6C
:101A80004F4B000041542646300D0A0000B58DB082
:101A90000B46024605A168460DF0F6F9094A0AA16F
:101AA000684600F0A7F80DB000BD000041542B437C
:101AB0004F50533D312C322C222564222C25640DAD
:101AC0000A00000020BF00004F4B00000FB4F0B52B
:101AD0003C4C3E4DA5443C4B1924EA686B44A401A0
:101AE0001E46002A16D06F4629463846FEF76EFB82
:101AF0003749E86869448A6DC019334621460FF0BA
:101B000055FEE9680E180A212846FEF778FB0020EA
:101B1000E86007E02E4821466844826D68460FF071
:101B200045FE0646294D5C3D286D696D401A001939
:101B30002146FEF7F5FA671A13E0012002F091FA48
:101B4000286D696D401A00192146FEF7E9FA671AF7
:101B500072B60B2002F052FC012801D1FFF774FC91
:101B600062B6BE42E9DC286D1A4F8019A042286D8A
:101B700008DAC01932466946FEF728FB286D80193D
:101B800028650FE0201A84B2286D2246C0196946E4
:101B9000FEF71CFB6846361B011932463846FEF735
:101BA00015FB2E650D480C4980790858C007C00FF9
:101BB00001D1FFF7FFFE044C183CA544F0BC08BC63
:101BC00004B01847BCF9FFFF5C060000481A00206B
:101BD00000060000FC130020000002404020010825
:101BE00010B50446FEF720FB002802D02046FFF780
:101BF0006DFF10BDF7B51746FFF7F2FF1D4C012032
:101C0000607004F039FC064601E00AF01BF904F0AC
:101C100033FC05462078002802D1A81BB842F4D333
:101C2000022002F01EFA0020207060701248019914
:101C30000CF0BEFA002808D00F4910A00FF09EFE4D
:101C400011A00FF09BFE0120FEBDA81BB84207D3D8
:101C50000EA00FF093FE0CA00FF090FE0220FEBD30
:101C600005490CA0019A0FF089FE07A00FF086FE2F
:101C70000020FEBD18010020581A0020537472691C
:101C80006E673A20257300000D0A000054494D4547
:101C90004F5554004552524F52205F25735F2573B4
:101CA0000000000010B501230DF0A4F810BD0000E5
:101CB00000B589B000920B46024606A101A80DF0BE
:101CC000E3F8FF222D3209A101A8FFF793FF09B025
:101CD00000BD000041542B4345445258533D2564F8
:101CE0002C25642C25730D0A000000004F4B0000CA
:101CF00010B51F4C010013D001291AD0022928D099
:101D0000032825D122461BA11BA0FFF773FF224603
:101D100018A120A0FFF76EFF224616A124A015E00F
:101D2000224614A129A0FFF765FF224611A12EA08B
:101D300007E022460FA133A0FFF75CFF22460DA16A
:101D400037A0FFF757FF22460AA13CA0FFF752FF3A
:101D500010BD224607A140A0FFF74CFF224605A177
:101D60000CA0FFF747FF224602A142A0EEE70000C9
:101D70002C0100004F4B000041542B514346473D7E
:101D8000226E777363616E736571222C30332C3150
:101D90000D0A000041542B514346473D226E777394
:101DA00063616E6D6F6465222C332C310D0A000067
:101DB00041542B514346473D22696F746F706D6FDC
:101DC0006465222C312C310D0A00000041542B5146
:101DD0004346473D226E777363616E736571222CB3
:101DE00030302C310D0A000041542B514346473D01
:101DF000226E777363616E6D6F6465222C302C31B7
:101E00000D0A000041542B514346473D226E777323
:101E100063616E736571222C30312C310D0A000024
:101E200041542B514346473D226E777363616E6D7B
:101E30006F6465222C312C310D0A000041542B5166
:101E40004346473D22696F746F706D6F6465222C45
:101E5000322C310D0A00000041542B514346473DBE
:101E6000226E777363616E736571222C30322C3170
:101E70000000000041542B514346473D22696F74D6
:101E80006F706D6F6465222C302C310D0A000000DC
:101E900010B5FF222D3202A102A0FFF7ABFE10BD4C
:101EA0004F4B000041542B5150534D45585443461D
:101EB000473D362C312C3132302C322C312C310D27
:101EC0000A00000000B589B0024606A168460CF081
:101ED000DBFFFF222D3207A16846FFF78BFE09B01A
:101EE00000BD000041542B435245473D25640D0A77
:101EF000000000004F4B000000B58DB0024606A167
:101F000068460CF0C1FFFF222D3209A16846FFF799
:101F100071FE0DB000BD000041542B434744434FB8
:101F20004E543D312C224950222C25730D0A0000BD
:101F30004F4B000010B59CB01E9C019300920B46C5
:101F40000246029405A103A80CF09EFF7D22D20058
:101F500009A103A8FFF74EFE1CB010BD41542B5140
:101F600050534D533D25642C25732C25732C25731C
:101F70002C25730D0A0000004F4B000000B589B0FE
:101F800005A168460CF080FF7D22D20008A16846BA
:101F9000FFF730FE09B000BD41542B514346473D89
:101FA0002270736D2F656E746572222C310D0A00DC
:101FB0004F4B000070B51F4A8CB0146B01231C43BB
:101FC0001463126B80251A400B92102202921A4A57
:101FD000009200220692049203920190059505203A
:101FE000164C079208910A9209906A4607212046EA
:101FF00004F05EFD124EB0792158022211432150A7
:10200000002202210B20193E02F006FA0B2002F0FA
:10201000EBF909482838816829438160F17F6258CB
:1020200001231A43625001684022114301600CB041
:1020300070BD00000010024028480040000002402F
:1020400040200108F3B54A4FA5B00D46FA7849A1E2
:1020500001A80CF019FF04F00FFA064604F00CFA80
:10206000044649A00FF08AFC49A00FF087FC17E056
:10207000FEF79AF8FF21F531FEF752F80846FF30D7
:10208000F53001F0EEFF7D22120142A101A8FFF719
:10209000B1FD009004F0F0F904460098012802D048
:1020A000A01BA842E4D33CA00FF068FC38A00FF0BE
:1020B00065FC3BA00FF062FC35A00FF05FFCC82070
:1020C00001F0CFFF2598FFF78BFDC82001F0C9FF75
:1020D000354A36A136A0FFF78DFD7D22120135A1CC
:1020E00033A0FFF787FD35A00FF048FC28A00FF0C4
:1020F00045FCFA7836A110A80CF0C6FE39A00FF006
:102100003DFC23A00FF03AFC002404F0B5F906468C
:1021100004F0B2F926E0FEF747F8FF21F531FDF7AC
:10212000FFFF7D20C000081801F09BFF2F4A1FA968
:1021300010A8FFF7B7FD1FA92DA00FF01FFC14A0DA
:102140000FF01CFC0020401C1328FCDB012C05D0E8
:10215000154A2AA116A0FFF74DFD044604F08CF99C
:10216000012C02D0801BA842D5D3204627B0F0BD59
:102170001801002041542B514953454E443D2564DC
:102180002C313434390D0A0073656E64203100003F
:102190000D0A00003E00000073656E6420320000EE
:1021A00073656E6420330000B80B0000200000004F
:1021B0000000000053454E44204F4B0073656E6491
:1021C00020646174612073656E64204F4B000000D1
:1021D00041542B514953454E443D25642C300D0A42
:1021E0000000000073656E642034000010270000BA
:1021F000726573706F6E7365202573004F4B00001E
:10220000F0B59FB0324D01910090EB78AA7831A1E2
:102210000CA80CF039FEFF262D36324635A10CA84D
:10222000FFF7E8FC044604F027F9009004F024F9D5
:10223000314F10E0FDF7B8FFC821FDF771FF0846E8
:10224000643001F00EFF32462AA10CA8FFF7D2FC41
:10225000044604F011F9012C06D00099401AB84246
:10226000E8D320461FB0F0BD32460CA923A0FFF7EB
:1022700019FDEA7822A102A80CF006FE02A90CA81A
:102280000BF096FF002807D021A00FF077FB24A0C9
:102290000FF074FB0120E5E700206946C87402A92D
:1022A0000CA80BF085FF002803D01EA00FF066FBE2
:1022B00009E021A00FF062FB19A00FF05FFB0CA951
:1022C0001FA00FF05BFB16A00FF058FB0020C9E722
:1022D0001801002041542B51494F50454E3D256473
:1022E0002C25642C22554450222C222573222C2587
:1022F000640D0A004F4B0000307500000000000024
:102300002B51494F50454E3A2025642C3000000097
:1023100062756666657220636865636B206F6B002B
:102320000D0A000062756666657220636865636BFE
:1023300020216F6B000000006F7468657200000060
:102340002573000000B507488FB0C27806A1684623
:102350000CF09AFDFF222D3207A16846FFF74AFCD8
:102360000FB000BD1801002041542B5149434C4F80
:1023700053453D25640D0A004F4B0000F0B599B060
:10238000074604F079F8064604F076F80546FF2281
:1023900000242D3225A126A0FFF72CFC30E07D2261
:1023A000D200694626A0FFF77DFC0446012824D10F
:1023B00039216846FDF72EFF0546694623A00FF038
:1023C000DDFA24A00FF0DAFA002D06D022A00FF0DB
:1023D000D5FA20A00FF0D2FA0BE025A00FF0CEFA2C
:1023E0001CA00FF0CBFA28A168460BF0E1FE0028F4
:1023F00002D004F041F80FE0002404F03DF8054657
:10240000A81BB842CBD3012C06D0FF222D3221A12C
:102410000BA0FFF7EFFB0446FF222D3203A121A002
:10242000FFF7E8FB204619B0F0BD00004F4B00005D
:1024300041542B43455245473D320D0A00000000F0
:1024400041542B43455245473F0D0A002D2025732B
:10245000000000000D0A00002D204E42494F54207C
:102460006D6F646520697320666F756E640000008F
:102470002D204E42494F54206D6F6465206E6F745D
:1024800020666F756E6400002B43455245473A2025
:10249000312C22002B43455245473A20342C312C15
:1024A0002200000041542B43455245473D300D0A60
:1024B0000000000070B5064603F0DEFF054603F09D
:1024C000DBFF044629460DA00FF058FA11A00FF0CB
:1024D00055FA04E009F0B6FC03F0CEFF0446FFF71E
:1024E00039F9002802D1601BB042F3D3601BB0421F
:1024F00001D3022070BD012070BD00002D20546961
:10250000636B732073746172746564206174202539
:10251000303878000D0A0000F8B5074603F0ACFF2C
:10252000054603F0A9FF04461D4E13E00122402199
:10253000304601F0D8FE502001F093FD00224021EA
:10254000304601F0D0FE7D20C00001F08AFD03F08E
:1025500093FF0446FFF7FEF8002802D0601BB84244
:10256000E4D3104C10A1224610A0FFF743FB10A0AB
:102570000FF004FA10A00FF001FA22460FA10BA0F1
:10258000FFF738FB0FA00FF0F9F90BA00FF0F6F9E9
:10259000FFF7E0F8002801D00220F8BD0120F8BDC7
:1025A00000040050581B0000524459000000000075
:1025B000476F7420524459000D0A000041505020CA
:1025C00052445900474F5420415050524459000042
:1025D00010B5FFF7BFF8002831D020A00FF0CEF9DA
:1025E00024A00FF0CBF924A00FF0C8F921A00FF020
:1025F000C5F92648FFF790FF012804D024A00FF06A
:10260000BDF91CA008E028A00FF0B8F92B48FFF78F
:10261000B5FE012804D02AA00FF0B0F9002010BDAB
:102620002EA00FF0ABF9FEF7FDFD00280CD032A074
:102630000FF0A4F90FA00FF0A1F9012010BD35A0F3
:102640000FF09CF90BA0ECE738A00FF097F909A068
:102650000FF094F9FEF7A8FD3AA0E9E72D20537496
:10266000617475733A20706F776572656420646F6A
:10267000776E00000D0A00002D2057616B696E67B0
:102680002066726F6D2070736D00000010270000CF
:102690002D2057616B652066726F6D2050534D2061
:1026A0006661696C000000002D2057616B65206633
:1026B000726F6D2050534D206F6B0000204E000054
:1026C0002D205761697420666F7220636F6E6E658E
:1026D0006374696F6E206661696C00002D2057611C
:1026E000697420666F7220636F6E6E656374696FC4
:1026F0006E206F6B000000002D20436F6E746578B4
:102700007420616C726561647920616374697665B7
:10271000000000002D205374617475733A20706FAF
:102720007765726564206F6E000000002D20436F96
:102730006E74657874206E6F742061637469766559
:10274000000000002D20436F6E7465787420616373
:10275000746976617465640010B5054A4100515A88
:10276000044A80001058002201F0BDFD10BD000099
:10277000701B01082400002010B5054A4100515A81
:10278000044A80001058012201F0ADFD10BD000088
:10279000701B010824000020FFB510250446455792
:1027A000112087B0205606900A98A16801606079D0
:1027B0000027012840D1022168460173A17C817362
:1027C000E07C03A909F036F946B2B54200DC354693
:1027D000B54203D10A98002101602DE0A089A168CB
:1027E000814200D30127E2898018884224D808203A
:1027F00069460873E07C03A909F01CF940B2069011
:10280000E189A068FDF776FC012915D122216846EF
:1028100001734573A17C8173E07C03A909F00AF977
:1028200045B2B54208D120790027012804D1694674
:102830000871E07C09F008F9089805700999069874
:10284000087038460BB0F0BDFEB51C4CFF22616825
:10285000D532525C00250126002A6A462CD016701B
:10286000FF223E32535C6A469370FF31D070813153
:10287000C86C0BF035FF114F0190803FB8696A4674
:10288000029055706078400706D5002004F05EFF86
:10289000002801D06846467060686946007808F0F4
:1028A000F3F9FF226168C332B869525AFF314243DB
:1028B000101A81318864FEBD1570D1E72808002008
:1028C0000449896C002903D08968002900D0084791
:1028D00070470000A8060020FFB587B0109E1C4678
:1028E0000F0005460CD0002E0AD019480490FEF7C0
:1028F000A5FB05A9204600F0E7FC040003D025E075
:1029000002200BB0F0BD05990498491CFEF7A6FB08
:10291000002D04D0102229460498FEF7A7FB394663
:10292000099A0498FEF7A2FB68460499FEF7E8FAB4
:1029300069460878C97809060843694689780A040F
:102940006946497809020A43104330602046D8E7B7
:10295000F40D0020F0B587B09C460C4605000F9F93
:102960000C9B0D990E98164608D0002F06D0FF221A
:102970000132944204D90E2007B0F0BD0A20FBE7D3
:1029800003AA02920091019062463146204607F068
:1029900067F833462246294603A800970BF060F8F3
:1029A0000028E9D00F20E7E7FFB5002085B00090B0
:1029B0000546064601900024770007980121C05B78
:1029C000A14008422FD028190C2203905043089AA6
:1029D0001258002A27D0059A002A01D1490722D08F
:1029E00008994118082002910856021100070117A2
:1029F000069840B208F03BFB002814D00298407AB9
:102A000001010E980818C068002804D00198401CE5
:102A1000C0B2019007E0009A0F990398885400987B
:102A2000401CC0B20090641CE4B2102CC5D3103519
:102A3000761CEDB2F6B2102DBDD310990198087036
:102A4000009809B0F0BD000030B587B01421684689
:102A5000FDF7D5FB1A4CE16A02200143E162E16A0D
:102A6000184D014001200190029003200390059130
:102A70000F20000300906946284601F06DFB0022FC
:102A8000A114284601F02FFC012100224903284609
:102A900001F029FC00222901284601F024FC002233
:102AA0006901284601F01FFC606B2903084360633D
:102AB00001F0A8F801F0B6F801F0ACF807B030BDAD
:102AC000001002400004005010B5024801F0DEF88A
:102AD00010BD0000301E002010B503F00BFE09F001
:102AE0008DFA10BD10B5FEF7AFFC10BD10B504682F
:102AF00063608368102B036803D099600068C2602C
:102B000010BD9A600068C16010BD00007FB504462A
:102B100000290BD000200090019002900390032C1C
:102B200006D0042C06D00B2004B070BD0A20FBE7B1
:102B3000062000E005206A46107000A80822013037
:102B40000DF051FE0B4823464068022204462578CA
:102B50006946284665782D022843A578E4782D0437
:102B60002843240620430AF085FF0028DCD00F20EC
:102B7000DAE700007C0B0020F0B585B01E46174652
:102B80000546002913D0002F11D0002E0FD00020B1
:102B90000090019002900390052D0AD0062D08D0D8
:102BA000072D06D0082D06D00B2005B0F0BD0A2059
:102BB000FBE7012000E002206A4610706C46032209
:102BC000601C0DF005FE03223946201D0DF000FEAD
:102BD00002223146E01D0DF0FBFD0B482B464068FC
:102BE0000222044625786946284665782D02284346
:102BF000A578E4782D042843240620430AF03AFF00
:102C00000028D2D00F20D0E77C0B0020FFB585B084
:102C100017460546002915D0002F13D00898002824
:102C200010D0002002240090019002900390052D06
:102C30000AD0062D0AD0072D31D0082D31D00B2017
:102C400009B0F0BD0A20FBE7012000E003206A463E
:102C500010706E460322701C0DF0BAFD0822394632
:102C6000301D0DF0C0FD022203A808990DF0B0FD43
:102C70000D48224640682B4604462578694628467A
:102C800065782D022843A578E4782D04284324068E
:102C900020430AF0EFFE0028D2D00F20D0E7042016
:102CA000D5E700240220D2E77C0B002000280BD0BF
:102CB000002909D0027B20301307002B06D00378AF
:102CC000002B03D000200EE003207047037A002B76
:102CD00003D0120703D017207047012003E00078CB
:102CE000002803D003200870002070470220FAE774
:102CF0007047704710B5012001F022FA022001F060
:102D00001FFA10BD10B5042001F01AFA082001F0D6
:102D100017FA10BD10B5102001F012FA202001F0B2
:102D20000FFA402001F00CFA802001F009FAFF2090
:102D3000013001F005FA0120400201F001FA012002
:102D4000800201F0FDF90120C00201F0F9F9012033
:102D5000000301F0F5F90120400301F0F1F9012031
:102D6000800301F0EDF90120C00301F0E9F910BD85
:102D700012A00EF003FE15A00EF000FE144800F0A5
:102D800081FF014613A00EF0F9FD10A00EF0F6FD34
:102D90000F4800F075FF014612A00EF0EFFD0BA0EA
:102DA0000EF0ECFD0A48603800F0F5FC014611A079
:102DB0000EF0E4FD05A00EF0E1FDFEE74572726F36
:102DC000725F48616E646C65720A0D000D0A000046
:102DD000301E0020646D612073746174653A202593
:102DE00064000000646D61206572726F723A202584
:102DF00064000000616463206572726F723A20257E
:102E00006400000010B50520FFF75AFD10BD10B595
:102E10000420FFF755FD10BD10B50620FFF750FD4B
:102E200010BD10B50220FFF74BFD10BD10B50320FB
:102E3000FFF746FD10BD0000F8B500250F4C18E067
:102E4000E068AE0080590146FDF757FA0746A068D2
:102E500080590146FDF751FA3946FDF7F5F9FDF7BE
:102E600015FD0EF0EFFBFDF739FDA1686D1C8851D3
:102E7000ADB260888542E3D3F8BD00007001002048
:102E8000F1B5002592B02E46794C1DE0AE4210D22D
:102E9000A9000591A068B700091838180BF09CF933
:102EA0001298002805D10599E068091838180BF028
:102EB00093F9608801E0291A8DB24008A842FAD936
:102EC0002818761C85B2B6B26088401E8642DDDBCB
:102ED000684809900020079001200D900020A0E094
:102EE0000D990A914904090C0D917F21C9050291A0
:102EF0000021019100918768C6684088089060E0D1
:102F00000C463CE00A9820180004810B0B91705885
:102F10000C9001460198FDF7F0F90B990F907D5840
:102F200002982946FDF7E9F90F99FDF7DEF90F90B0
:102F300029460198FDF7E1F905460C990298FDF73D
:102F4000DCF92946FDF780F9A5000C9078590F9916
:102F5000FDF7CBF90B99785070590C99FDF7C5F92D
:102F60000B99705078590F99FDF76EF97851705997
:102F70000C99FDF769F970510D98201884B20898E2
:102F80008442BFD307990198FDF7B7F90446099920
:102F90000298FDF7B2F92146FDF7A7F90446099911
:102FA0000198FDF7AAF9054607990298FDF7A5F9DA
:102FB0002946FDF749F9019000980294401C80B21F
:102FC000009000990A9881429AD30998FDF75EFC17
:102FD000294E0D46044600223346FDF7B4FA002779
:102FE000FF433A46FDF798FB0EF02CFBFDF776FC0D
:102FF00007902046294600223346FDF7F9F93A4664
:10300000FDF78AFB0EF01EFBFDF768FC0990129895
:10301000012803D10798F102484007901098401CFE
:10302000C0B20146109012480278914200D257E790
:103030001298012819D00E48002441880891876809
:10304000C6680FE0FDF789FB0146A5000690785998
:10305000FDF790F9785170590699FDF78BF9641CCA
:103060007051A4B208988442ECD313B0F0BD0000B4
:1030700070010020000080BF0000F03F10B5074C39
:10308000E160A06062800020636001E0401CC0B28B
:103090001146C140C907F9D0207010BD7001002051
:1030A000F0B58BB0119D109C9C4696460646002DAF
:1030B0001CD0002004900690079008900990009082
:1030C00001900290039001206A461070244A5768CC
:1030D000244A3B68934211D96246002A08D0012A4B
:1030E00006D0022A07D009200BB0F0BD0A20FBE76A
:1030F0006A46107102E002236A46137173466A46FB
:10310000537191710B0AD3710B0C1372090E51722A
:103110009472210AD172210C1173210E517311493D
:103120003A688A4201D96946C873002E16D006ABA8
:103130000722102168460AF05DFC002801D00F200C
:10314000D2E7002006AB07E004991C5C09186A5C12
:103150006240401C6A54C0B2B042F5D30020C3E7BD
:103160007C0B002000000101064980000958064838
:10317000091803D0C14203D00020704701207047D6
:10318000022070474C1C0108702FFCFF38B5174C0B
:1031900015482060FF20DD3060602046143004F0C8
:1031A000D7FB2061002000900F486946083840682E
:1031B000007808F036FCA0600098E06020461C30E3
:1031C0000AF086FCA0612046243004F06DF92062EC
:1031D00020462C3004F0E2F8A0622046343004F09F
:1031E0005DFA2063204638BD300800200C0A00201C
:1031F00070B505461446084604E00178A94204D09B
:1032000003F040FCA042F8D1002070BD7FB50A9EBB
:10321000089D099C002A0AD0002C08D0002E06D058
:1032200003000BF074FE051517191B0724000A2074
:1032300004B070BD6846807B012801D003200EE0F9
:10324000002903D0032901D0012008E0022006E074
:10325000042004E0052002E0062000E007202070A2
:10326000D289C0B23346294604F02AFBE0E70520A4
:10327000DEE7000010B5094A0021CB00D458844293
:1032800007D89B189B68834203D9C800801800792F
:1032900010BD491CC9B21529EFD3FEE7BC1A0108BD
:1032A00010B5084B002294001C5D844204D19000AC
:1032B000C0180860002010BD521CD2B2052AF2D3FB
:1032C0000C2010BD8000002030B500220C4B1124D2
:1032D000640115015519ED182D192D7B854208D172
:1032E000100110188B22C01892008018086000206E
:1032F00030BD521CD2B2182AEBD3032030BD0000DF
:10330000E00C002010B5002909D0154C03006268BC
:103310000BF0FDFD0824070D141A1C2022240A209E
:1033200010BD1069086060680146103104E0506902
:103330000860606801461431016309E09069086023
:10334000606801461831F7E7D06900E0106A08604C
:10335000002010BD506AFAE7906AF8E7052010BD1A
:103360007C0B002038B50B496B464A681146FF318B
:1033700021310C7B9C7058700D201870C87F01287B
:1033800001D10E2018701078194608F053FBC0B216
:1033900038BD000028080020F8B505460446403531
:1033A000287D0026012808D0012028752068816822
:1033B0008907890F01290ED101E00220F8BD0168BB
:1033C000C90708D0A06D20210843A0650126002070
:1033D00028753046F8BDA16DFF22013291430222CB
:1033E0001143A165C1688907890F0091C1688908E7
:1033F0008900C1602068816892071143816000F0F4
:1034000079FF07460EE000F075FFC01B0A2809D9B6
:10341000A06D0221884310210843A0650020287573
:103420000120F8BD206880680028ECDB2068C168B6
:10343000009A1143C160A06D80088000401CA06507
:10344000C5E70000F8B506460D464036317D012936
:103450000DD00121317501688A68520709D5816D47
:10346000202211438165002030750120F8BD022023
:10347000F8BD174B6A68D80547109A42154C8A6AFE
:103480002B6812D05B035B0B1A438A6229684903DD
:1034900005D5A1680143A1600A20FDF795FC2868C5
:1034A000800312D5A06838430EE05B035B0B9A43A0
:1034B0008A622968490302D5A1688143A16028680E
:1034C000800302D5A068B843A06000203075F8BD25
:1034D0000110000000270140F1B52EA00EF04EFAB9
:1034E0002EA00EF04BFA2E4CE078002806D107F003
:1034F000C3FA40200CF0A0FA0120E07005256D020F
:10350000E06829464219A0880EF06EFAA088254F7F
:10351000401986B2A6802289E38869104800385A8B
:10352000984201D9034602E0904200D20246491C6B
:1035300089B2A942F2D31C482281E380864227D374
:10354000009800F027FB17480C21483802F0CAFC0D
:10355000002801D0FFF70CFC14A00EF00FFA0FA00A
:103560000EF00CFA15A00EF009FA0CA00EF006FAF7
:103570000121084603F0D8FE0021012003F0E8FEF7
:10358000154B01220421154802F0AEFD01206070A8
:10359000F8BD000073706973320000000D0A00006E
:1035A00060010020B81E0020B88800006D657469B5
:1035B0006E672067656461616E0000005065726629
:1035C000656374206F6D20646F6F72207465207363
:1035D000747572656E0000008115010800040050CA
:1035E000FEB5564C0746A0880526554D36020028E4
:1035F00010D054A00EF0C2F954A00EF0BFF90EF096
:1036000007F82389E28800214800285A90427DD992
:1036100002468BE04EA00EF0B1F94CA00EF0AEF9D0
:10362000002301220421504802F05EFD7D235B014E
:10363000002211464800285A904201D9024602E071
:10364000984200D20346491C89B2B142F2D3D51A3E
:10365000294646A00EF092F93CA00EF08FF9217891
:1036600045A00EF08BF939A00EF088F9FF2041300B
:10367000C600854202DA2078002808D040488542FA
:1036800002DD207804282CD00DF0C2FFFEBD3846A4
:1036900000F080FA2A480C21483802F023FC002868
:1036A0003FD1042020703748019025480124694605
:1036B0000094E838FFF7C6FE002832D13248009067
:1036C0001F4869460194E838FFF7BCFE002828D15E
:1036D0001B480021E838FFF75FFE002821D12BA00E
:1036E0000CE0384600F056FA15480C21483802F034
:1036F000F9FB002815D1FDF7DBFB25A00EF03EF904
:1037000012A00EF03BF932460D4900E00BE03846BE
:1037100000F0F0F90A480C21483802F0D5FB0028E7
:10372000B4D0FFF725FB984200D20346491C89B26A
:10373000B14200D268E72381E280FEBD6001002033
:10374000B81E002073706973310000000D0A00007C
:1037500063616C6962726572656E206368616E6E2A
:10376000656C20616463000000040050766572732C
:103770006368696C202564006368203A2025640032
:10378000D80E000001100000100000104348340063
:10379000434830007047806D704770B5044600683C
:1037A0000168490702D54168490705D4016809073E
:1037B00033D54168090730D5A16DC90604D4A16D80
:1037C000012252021143A165C1680C250905890F28
:1037D00000291AD1216A002917D10168090714D5D7
:1037E00081684A070121002A08DB4268AA43426037
:1037F000A06D0A0290430843A06506E0A06D202258
:103800001043A065E06D0843E0652046FFF764FEC5
:10381000A069012801D020680560206801680906B8
:103820000DD5406800060AD5A06D012109040843A2
:10383000A065204600F0FEF821688020086020681E
:103840000168C90613D54168C90610D5616B1025FA
:10385000002902D0C168C90707D0E16D02221143D7
:10386000E16505602046FFF795FF2068056070BDA3
:1038700070B5040006D0A06D26460025403600280D
:1038800002D006E0012070BDE5653575204600F0E8
:10389000D3F8A06DC00603D421688868400705D519
:1038A000A06D10210843A0653575EBE7A06DFF22E0
:1038B0000132904302221043A06588688207920F6C
:1038C0005A48012A02D10A68D2072BD10323626821
:1038D0009B079A4205D05B429A4202D05B009A4213
:1038E00009D10A69920092080A6121680A6963682D
:1038F0001A430A610CE00A69920092080A61816821
:103900000F22920491438160816862681143816053
:103910002168CA6818239A43CA602168CA68A368E4
:103920001A43CA608168012252069143816081680E
:10393000228F52061143816020688168C90004D437
:10394000816801221207114381602068C168384AEA
:103950001140C1602169E068022923D00021084399
:10396000216A226B4903520011430843616B0843EB
:10397000A16989030843E169C90308432168CA684A
:103980001043C860A06A0146FF39C23905D0E16A18
:1039900008432168CA681043C860606A0121012891
:1039A00002D00BE00421DAE7206A002823D0A06DC2
:1039B00020221043A065E06D0843E065206C0128DB
:1039C00020681FD00169C90703D00169490849006F
:1039D000016120684169C908C900416120684169E5
:1039E000E26B11434161E565A06D80088000401CD9
:1039F000A065002070BD2068C26801231B041A4323
:103A0000C260DBE70269FF239B009A4302612068E2
:103A10000269636CE66C1A43A36C33431A43026178
:103A2000206802690A430261D3E7000000270140D1
:103A30001902FEFF7047000070B5064686B023A04D
:103A40000DF09CFF26A00DF099FF14216846FCF7AD
:103A5000D6FB24493068884236D12349486B4A1541
:103A600010434863C86A01221043C862C86A00252F
:103A70001040059011200090032001900520694618
:103A80000295000700F068FB1848194C21C4256016
:103A900080206560A0604000E06080002061202000
:103AA000A56160611248083C00F030FA002801D09E
:103AB000FFF75EF93465002211460C20A66200F083
:103AC000ABFC0C2000F090FC06B070BD696E697410
:103AD000206164635F6D7370696E6974000000003B
:103AE0000D0A0000002401400010024008000240BE
:103AF000301E0020F7B504460068002580684007A6
:103B00003DD426464036307D01280AD0012737753E
:103B1000E069012807D02046FDF798F9050002D09A
:103B20002EE00220FEBDA06D16490840FF210131A4
:103B30000843A0650020E0653075216D1248C86219
:103B4000216D12480863216D1148486321681C20CB
:103B50000860206841681022114341602068C168F4
:103B60003943C1602168206D4031029B019A00F009
:103B700051FA2068816804221143816000E0022527
:103B80002846FEBDFEF1FFFF370D0008BD0D000801
:103B9000A30D0008F8B5064604464036307D0128DE
:103BA00007D0012737752046FDF79CF8050002D0A5
:103BB00024E00220F8BD2068C16849084900C160BE
:103BC000206D00F037F8050003D0A06D40210843B8
:103BD000A06520684168102291434160002D204675
:103BE00002D0FDF703F909E0FDF700F9050005D162
:103BF000A06DFF21013188433843A0650020307556
:103C00002846F8BD024841680122114341607047CF
:103C10000058014002484168042211434160704746
:103C20000058014002484168022211434160704738
:103C300000580140F8B50446006801684908490089
:103C4000016000F057FB00272546064620350EE0B0
:103C500000F050FB811B7D20C000814207D9E06B42
:103C600020210843E0632F7103206871F8BD2068AC
:103C70000068C007ECD12F71012068710020F8BDE9
:103C8000C06B70472030407970470000F8B504469B
:103C90009D4801689C4A9C4E9B4F08322068130443
:103CA0001C363037904201D108221EE0B04201D1CB
:103CB00080221AE0B84202D10122D20215E0924AD3
:103CC0004432904202D10122D2030EE08E4A583291
:103CD000904201D11A4608E08B4A6C32904202D1E0
:103CE0000122D20501E00122D206254611402035ED
:103CF00000293BD00168090738D5016808229143A3
:103D00000160814920680831884201D108201EE005
:103D1000B04201D180201AE0B84202D10120C00295
:103D200015E079494431884202D10120C0030EE0F8
:103D300075495831884201D1184608E072496C3102
:103D4000884202D10120C00501E00120C0066E4971
:103D50004860E06B01210843E063042068710020A3
:103D60002871616B002901D02046884766480168A8
:103D7000654A206808321315904201D104221EE0E2
:103D8000B04201D140221AE0B84201D11A4616E0F1
:103D90005D4A4432904202D1012292030FE05A4A16
:103DA0005832904202D10122920408E0564A6C3205
:103DB000904202D10122920501E0012292061142B5
:103DC00038D00168490735D50168890603D40268EF
:103DD00004218A4302604C4920680831884201D19D
:103DE00004201EE0B04201D140201AE0B84201D1C7
:103DF000184616E044494431884202D1012080032C
:103E00000FE041495831884202D10120800408E086
:103E10003D496C31884202D10120800501E001203A
:103E200080063949486005206871216B002901D05E
:103E30002046884734480168334A206808325315C1
:103E4000904201D102221EE0B04201D120221AE0AC
:103E5000B84201D11A4616E02B4A4432904202D1B0
:103E6000012252030FE0284A5832904202D1012227
:103E7000520408E0244A6C32904202D101225205D9
:103E800001E00122520611423CD00168890739D570
:103E90000168890603D401680222914301601A492E
:103EA00020680831884201D102201EE0B04201D1D1
:103EB00020201AE0B84201D1184616E012494431D8
:103EC000884202D1012040030FE00F495831884257
:103ED00002D10120400408E00B496C31884202D134
:103EE0000120400501E00120400607494860E06BE1
:103EF000E0630120687100202871E16A002901D087
:103F000020468847F8BD00000000024070B5002838
:103F100005D0034620335979002902D003E001205F
:103F200070BD002119710221597104682268374956
:103F3000C5680A40816846692943056935432943B4
:103F400085692943C5692943056A294311432160CD
:103F50002F492F4C02687831A24206D18A6A120991
:103F600012018A628A6A406849E0294C1434A242EC
:103F700007D18A6AF024A2438A628A6A40680001F3
:103F80003DE0234C2834A24208D18A6A0F2424023F
:103F9000A2438A628A6A4068000230E01C4C3C34CA
:103FA000A24208D18A6A0F242403A2438A628A6A41
:103FB0004068000323E0164C5034A24208D18A6ABC
:103FC0000F242404A2438A628A6A8088000416E0CF
:103FD0000F4C6434A24208D18A6A0F242405A243FC
:103FE0008A628A6A8088000509E08A4209D18A6A61
:103FF0000F242406A2438A628A6A007900060243DB
:104000008A6201205871002070BD00000FC0FFFFC0
:1040100008000240F8B5044620300579012D1ED075
:10402000012505710226467120680768AF430760C5
:104030002046FEF75BFD206801683143016020687F
:1040400001680422114301602068016808221143BD
:10405000016020680168294301600020F8BD02204A
:10406000F8BD01B5009802F07BF908BD024841682F
:1040700082151143416070470020024003484168A7
:1040800001221143416000207047000000200240DF
:1040900005484168C90705D00449C1600449C160A9
:1040A000002070470120704700200240EFCDAB890F
:1040B0000504030270B50121890205254C002D0776
:1040C00088420BD100222146284600F00CF90FA0AF
:1040D0000DF054FC10A00DF051FC14E0042807D0A2
:1040E00001460EA00DF04AFC0BA00DF047FC70BD80
:1040F0000FA00DF043FC08A00DF040FC002221466B
:10410000284600F0F0F80DF0D1FA70BD77616B65CC
:10411000206D6963000000000D0A0000696E74657F
:10412000727570742070696E3A202564000000007A
:104130006472756B6B6E6F70207465737400000031
:1041400010B504494A69024202D04861FFF7B2FF44
:1041500010BD000000040140F8B500230124A7E0D1
:1041600027469F403A4070D04D68022D01D0122D55
:1041700014D1DD08AD002D1800952D6A5E07AC4600
:10418000F50E0F26AE46AE406546B543AC460E6909
:104190007546AE4065462E43009D2E624D68012D4A
:1041A00005D0022D03D0112D01D0122D16D1856816
:1041B0000326AC465D00AE46AE406546B543AC4610
:1041C000CE687546AE4065462E43866046680D79DA
:1041D000BE43ED06ED0F9D403543456006685F0028
:1041E0000325BD40AE46AE430D79B446AE07B60FCB
:1041F000BE4065462E430660C6687546AE438D6870
:10420000BD403543C5604D68ED0050D52B4D6E6BFC
:1042100026436E639E082A4DB6007519AC46AD68FC
:104220009E07360F0F27B740BD4305273F07B8420B
:1042300001D100271AE0234FB84201D1012715E030
:10424000214FB84202D1022710E030E01F4FB842A0
:1042500001D103270AE01E4FB84201D1042705E02F
:104260001C4FB84201D1052700E00627B7402F4375
:104270006546AF60184D2E684F689643FF0300D522
:1042800016432E606E684F689643BF0300D51643F1
:104290006E60AE684F689643FF0200D51643AE606D
:1042A000EE684F689643BF0200D51643EE605B1C74
:1042B0000A681546DD4000D052E7F8BD0010024004
:1042C000000001400004005000080050000C0050A5
:1042D00000100050001C005000040140006908401C
:1042E00000D001207047002A01D0816170478162AF
:1042F000704700000148006870470000500000202F
:1043000070B504000FD02168134808602168134875
:10431000086003CC41602068083C21688860FFF792
:10432000E9FF054608E0012070BDFFF7E3FF401BF1
:10433000302801D9032070BD2068C0680028F4D15E
:1043400020680269E1688A4201D0016101E0044904
:104350000160002070BD0000CCCC0000555500006D
:10436000AAAA00000068024901600020704700000E
:10437000AAAA000002480168491C016070470000B9
:104380005000002010B50648016802221143016068
:10439000032000F007F800F007F8002010BD00002F
:1043A000002002400020704710B50D48416B0122EB
:1043B00011434163816B02041143816300F040F8B3
:1043C00000F036F80748026808210A4302600268D4
:1043D0008A43026000F024F801F0DAFE10BD00000C
:1043E0000010024000200240C106C90E0120884092
:1043F000014908607047000000E100E005490968D4
:10440000C206D20E01209040014201D00120704727
:104410000020704700E200E010B505F015F910BD6E
:1044200002480168021511430160704700700040A6
:104430000248016842151143016070470070004056
:1044400002480168102291430160704700700040EB
:10445000094B1A689208920002431A6007480269E1
:1044600004239A430261012903D040BF20BF20BF2B
:10447000704730BF704700000070004000ED00E062
:1044800005480168022211430160044801690422C1
:104490001143016130BF70470070004000ED00E043
:1044A0000A4B1A689208920002431A60084803698E
:1044B000042213430361012906D040BF20BF20BF5F
:1044C000016991430161704730BFF9E70070004016
:1044D00000ED00E0F8B56649074601250020ED0330
:1044E000624B634A4031102F6FD011DC012F77D01F
:1044F000022F6CD0042F6BD0082F24D1C96803245D
:10450000240321407BD0BD026C10A9427CD0A0E0E6
:104510000326584C3604202F0BD0402F35D0FF3FB8
:10452000012F10D1C968314069D07C04A1426BD001
:1045300096E00B690969012731403F04B94203D174
:10454000990559E02846F8BD01256D04A94203D11B
:104550009907F8D54848F8BDB142FCD111688903E4
:10456000F9D5116803200005014001200005091A52
:1045700009D0091A05D0814201D14048F8BD204632
:10458000F8BD3F48F8BD3F48F8BDC9680125AD06F4
:10459000294006D0A942F7D191688907F4D53A4855
:1045A000F8BD11688901FBD5D068D1688002374D0C
:1045B000000F2D5C0802810FD068491CC0030AD48B
:1045C0001068C00605D5204606E045E008E023E077
:1045D00030E0184600E02E486843FBF78BFDF8BD3D
:1045E000CC68A407A40F0CD0022C0DD0012C10D045
:1045F000032CF4D1096989050029A3DBF8BD16E075
:1046000002E000F0D1F9F9E711684907F6D518463C
:10461000F4E700F0D9F9F1E7CC680C26344006D075
:10462000082CF1D0042CF4D00C2CE3D0E6E700F0F9
:10463000ABF9E3E7CC680326B6023440F7D0012794
:10464000FF02BC42E0D07A109442E2D0B442D1D012
:10465000D4E7A142DDD0D1E7916B4902E7D4CDE7A1
:10466000012212049142D4D0C8E700000024F400D3
:104670000010024000093D008890000020A10700C2
:1046800040420F0080841E00006CDC02FC1B01080D
:1046900000127A00F8B5044600785E4D800672D5A7
:1046A0005C4E0027403EB06BC00004D4B06BA9053F
:1046B0000843B063012758480168C90511D401684F
:1046C000821511430160FFF715FE009005E0FFF72A
:1046D00011FE0099401A642837D84F480068C00579
:1046E000F5D532680321090560680A40014091420E
:1046F00008D08103890F032904D13168890301D5CA
:104700000120F8BD2A69032109040A4022D008408B
:1047100090421FD0207880061CD528692A698843DA
:104720000121C9040A432A612A698A432A6128614E
:10473000C0050FD5FFF7DEFD009008E0FFF7DAFDBA
:104740000099411A3548814201D90320F8BD2869F2
:104750008005F3D561688803800F032805D132688E
:104760000005824301400A433260286903226168E0
:104770001204114008432861002F04D0B06B0121BE
:1047800009078843B0632078C00705D0E868A168AE
:10479000800880000843E8602078800705D5E86835
:1047A0000C218843E1680843E8602078400706D57B
:1047B000E86803218902884321690843E86020787A
:1047C000000706D5E86803210903884361690843A7
:1047D000E8602088C00506D5E868032109048843FD
:1047E000A1690843E8602078400606D5E868012101
:1047F00089068843216A0843E8602078000606D5C8
:10480000E868032189048843E1690843E8600020DF
:10481000F8BD000040100240007000408813000006
:10482000F8B5054653480E460068C007C00FB042B1
:104830000AD25048016849084900314301600068C4
:10484000C007C00FB0426FD128784B4C800705D508
:10485000E068F0218843A9680843E0602878C00731
:1048600052D06868022817D0032818D02168012880
:1048700018D08905002957DAE168890889000143C1
:10488000E160FFF737FD69680746022912D0032966
:104890001CD0012926D033E021688903EAE721688A
:1048A0008901E7E74907E5E7FFF724FDC11B334826
:1048B000814223D8E0680007800F0228F4D123E06A
:1048C000FFF718FDC11B2D48814217D8E06800078B
:1048D000800F0328F4D117E0FFF70CFDC11B274818
:1048E00081420BD8E0680007800F0128F4D10BE06B
:1048F000FFF700FDC11B2148814201D90320F8BD0B
:10490000E0680007800FF3D11A480168C907C90F92
:10491000B1420BD901684908490031430160006880
:10492000C007C00FB04201D00120F8BD2878400771
:1049300006D5E068072109028843E9680843E0607A
:104940002878000707D5E0680721C902884329694C
:10495000C9000843E06000F037F8E168084A09063A
:10496000090F515CC840074908600320FFF71AFD92
:104970000020F8BD00200240001002408813000013
:10498000EC1B01084C000020044805490068C96878
:10499000044A4905490F515CC84070474C0000204B
:1049A00000100240051C0108044805490068C96858
:1049B000044A8904490F515CC84070474C000020EC
:1049C00000100240051C010810B5184AD1680C20DF
:1049D000084004280BD0082810D00C2810D05068AC
:1049E0000004410F0120C003491C884010BD10681D
:1049F000C00601D50E4810BD0E4810BD0E4810BDB2
:104A000088020E4B000F185C0902D368890F491CFD
:104A1000DB0301D5084A05E01268D20601D5044A35
:104A200000E0044A5043FBF765FB10BD0010024054
:104A300000093D000024F40000127A00FC1B01086C
:104A4000F8B504460078FF4DC0074CD0E868000771
:104A5000800F022807D0E8680007800F032809D1DB
:104A6000E868C00306D5286880033CD56068002844
:104A700075D038E0012062680004824203D12968C1
:104A80000143296011E0052301211B0489049A4296
:104A90002A6802D10A432A60F1E782432A602A6821
:104AA00002400092286888432860606800280DD082
:104AB000FFF720FC0646E44F04E0FFF71BFC801BD9
:104AC000B8427DD828688003F7D50CE0FFF712FCC8
:104AD0000646DD4F04E0FFF70DFC801BB842F0D81E
:104AE00028688003F7D42078800741D5E8681F271D
:104AF0000007800F3F02012807D0E8680007800FF9
:104B0000032809D1E868C00306D42868400717D5F0
:104B1000E068012823D113E0E068002817D0296855
:104B20000922914301432960FFF7E4FB064604E0B4
:104B3000FFF7E0FB801B0228C3D828684007F7D5A1
:104B400068682169B84309020843686010E0286872
:104B5000400840002860FFF7CDFB064605E090E0E6
:104B6000FFF7C8FB801B0228ABD828684007F7D4A2
:104B70002078C00676D5E868B44E0007800F0BD0C9
:104B8000E06900285DD02868FF21013108432860D2
:104B9000FFF7B0FB074644E02868800502D5E069CE
:104BA00000286ED0606A69683140884212D905F0E9
:104BB000DDFF0028AED16868616AB043084300E0B9
:104BC000E4E068606868218C0002000A0906084376
:104BD00068600FE06968B143014369606868218CCF
:104BE0000002000A090608436860606A05F0BEFF1B
:104BF00000288FD1606A410B0120C003491C884006
:104C0000E968934A0906090F515CC8409149086058
:104C10000320FFF7C7FB25E0FFF76CFBC01B022852
:104C20008AD828688005F7D56868616AB043084368
:104C300068606868218C0002000A09060843686001
:104C400010E02968FF20013081432960FFF752FB03
:104C5000064604E0FFF74EFB801B022884D8286834
:104C60008005F7D420787C4E000723D560690028A2
:104C7000306910D0012108433061FFF73BFB074644
:104C800005E009E1FFF736FBC01B02287ED830693A
:104C90008007F7D50EE0400840003061FFF72AFB9F
:104CA000074604E0FFF726FBC01B02286ED83069D8
:104CB0008007F7D42078400761D5A86B0027C00093
:104CC00005D4A86B012109070843A863012763489D
:104CD0000168C90511D40168821511430160FFF70D
:104CE00009FB009005E0FFF705FB0099401A6428D6
:104CF0004CD85A480068C005F5D5FF20A26801309D
:104D0000824203D131690143316111E001218902FD
:104D1000002A07D005231B029A4203D132690A43B5
:104D20003261EFE732698243326130698843306132
:104D3000A06800280ED0FFF7DDFA009006E0FFF72C
:104D4000D9FA0099411A404881421FD8306980053C
:104D5000F5D50DE0FFF7CEFA009006E0FFF7CAFAAE
:104D60000099411A3848814210D830698005F5D43D
:104D7000002F04D0A96B012000078143A96320788C
:104D8000800630D53649A0694A1400E07DE000284D
:104D900016D0AB6801200343AB606B6B03436B63BE
:104DA000086A10430862FFF7A5FA064604E0FFF719
:104DB000A1FA801B022868D8A8688007F7D512E0FE
:104DC000A86840084000A860086A90430862FFF79E
:104DD00091FA064604E0FFF78DFA801B022854D8AA
:104DE000A8688007F7D4A06A002853D0E9680907AB
:104DF000890F032950D0012636060228286805D0DD
:104E0000B0432860FFF776FA044640E0B0432860DC
:104E1000FFF770FA074604E0FFF76CFAC01B0228A0
:104E200033D828688001F7D4216BE06AEA68084328
:104E3000616BFD231B049A4311430843E860286813
:104E400030430FE0001002408813000000E0000033
:104E5000EC1B01084C000020401002400070004094
:104E6000000001402860FFF745FA044604E0FFF720
:104E700041FA001B022808D828688001F7D509E00C
:104E8000FFF738FA001B022801D90320F8BD286873
:104E90008001F5D40020F8BD0120F8BD006889002C
:104EA00050300818006870470068890050300818B2
:104EB0000260704730B5014620310A78012A15D0CA
:104EC00001220A7002234B700468CA2363620468DB
:104ED0005323636203689C6820252C439C60006810
:104EE000FF2343624A700020087030BD022030BDAD
:104EF00010B509F01BFC10BDF8B50446022026468B
:104F0000203670702168CA204862216853204862A8
:104F1000204605F07AFEFF27002842D1216808606C
:104F2000216827484860206881684907490F8160E7
:104F3000FFF7E0F905460BE0FFF7DCF9411B7D20A8
:104F4000C000814204D92068476203207070F8BD18
:104F50002068C0684007EFD520688168002585601B
:104F60002168184848612168174808612068C561B0
:104F7000206805622068C5622068C56320684564B2
:104F8000206885642068C560206805642068C56461
:104F90002068806880060AD4204600F0FBFA0028CA
:104FA00005D020684762042070700120F8BD206899
:104FB0004762204600F008F9757035700020F8BD92
:104FC00001210000FFFF0000FF007F00F8B505464B
:104FD00004462035287801281DD0012028700220A1
:104FE00068702268CA205062226853205062FF20F5
:104FF00001300026FF2781421CD121688A68824344
:105000008A60206881680122120391438160FFF762
:1050100071F9009009E00220F8BDFFF76BF90099E3
:10502000411A7D20C00081421BD82068C068C0079B
:10503000F3D020E020688168012252029143816010
:1050400020688168120191438160FFF753F9009055
:105050000DE0FFF74FF90099411A7D20C000814211
:1050600005D920684762032068702E70F8BD20685B
:10507000C0688007EDD520684762012068702E70F7
:105080000020F8BD10B500680B464068C021C94338
:1050900001400002000ECC04D870E40E5C708C0657
:1050A000A40E0904490F9C701970002A0AD105F05A
:1050B00099FDD870587805F095FD5870987805F0EE
:1050C00091FD9870002010BD30B50B460168896ACB
:1050D0005960016809694904490C996000680468CD
:1050E0000F482146014088024D04800E18706D0E55
:1050F00049065D70490E99706102490E40242140B5
:10510000D970002A0AD105F06DFD1870587805F0A5
:1051100069FD5870987805F065FD9870002030BDE5
:105120007F7F7F0070B5040005D025462035687864
:10513000002802D006E0012070BD00202870204623
:1051400000F04CF8022068702168CA20486221688B
:1051500053204862204605F058FDFF2100282068B2
:1051600003D0416204206870E5E78268154B1A405D
:105170008260226890686368A66918432369334394
:10518000184390602268E0681061206802692389F2
:105190001B041A4302612068C26880239A43C260DC
:1051A0002068C26C92089200C264E269606902439E
:1051B0002068C36C1A43C264206841620120687091
:1051C000002070BDBFFF8FFF0348016901229204D8
:1051D00091430161704700004010024000B597B054
:1051E0000420009000200A90FF20013002906846C1
:1051F000FFF726FC002801D0FDF7BAFD20200E9015
:10520000C0020F900EA8FFF745FA002801D0FDF765
:10521000AFFD084801690122920411430161002297
:1052200001210220FFF7F8F80220FFF7DDF817B0A0
:1052300000BD000040100240FEB506460446203680
:1052400030780B46012842D0012030700220707067
:1052500020681D46002720358068002A39D0400686
:1052600055D5187805F0BEFC287805F0BBFC1978F8
:105270009878090408435978DA780902120411432E
:105280000843297809060843D9690843596908433E
:10529000054699695868084300902168CA20486209
:1052A000216853204862FF205A6A013080218242DF
:1052B0004AD122689368834393602268D06808408B
:1052C000FF388238D060FFF715F8019029E00220FE
:1052D000FEBD400600D4DF70187805F08BFC020498
:1052E000587805F087FC00020243987805F082FCAC
:1052F0000243D87800040243287805F07BFC0006BE
:105300000243D8690243586902431546C1E7DF707A
:10531000AAE7FEF7EFFF0199411A7D20C000814204
:105320002AD82068C068C007F3D02068C56121680A
:105330000098486420688168FF220132114381602F
:1053400020688168120130E02068826801235B02D6
:105350009A4382602068C2680A401D495118C160A2
:10536000FEF7C8FF01900EE0FEF7C4FF0199411A55
:105370007D20C000814206D92168FF2048620320B9
:1053800070703770FEBD2068C0688007ECD520685B
:1053900005622168009888642068816801225202B1
:1053A00011438160206881681201114381600948BE
:1053B0000268012149040A43026082680A4382604C
:1053C0002168FF2048620120707037700020FEBD08
:1053D0007FFDFFFF00040140F8B505460446203577
:1053E00028780B46012815D001202870022068700B
:1053F0005878002A10D005F0F5FB987805F0F2FBFC
:10540000D8789E780004064358781978000249033A
:10541000084316E00220F8BDC10603D5EF2108407D
:105420000A305870D87805F0E5FB0604587805F086
:10543000E1FB00020643987805F0DCFB0643187890
:10544000400306432168CA2048622168532048620D
:10545000204605F0DAFB0027002811D1104806404D
:10546000206846602068C16880229143C16020683E
:10547000806880060CD4204600F08CF8002807D005
:105480002168FF204862042068702F700120F8BD59
:105490002168FF204862012068702F700020F8BD4D
:1054A0003FFFFF00F8B506460446203630780D462B
:1054B00001280ED001203070022070702068002773
:1054C0008068002A07D040061AD5287805F08AFBA4
:1054D00017E00220F8BD400600D4EF70287805F0F0
:1054E00089FB0204687805F085FB00020243A87876
:1054F00005F080FB0243E8780004024300920BE0D1
:10550000EF702978A878090408436978EA780902D5
:1055100012041143084300902168CA2048622168A0
:1055200053204862204605F070FB00281FD118491F
:105530000098084021680860206881680122920470
:10554000914381602969E868084321688A681043AB
:1055500088602068C16880229143C16020688068AB
:1055600080060CD4204600F015F8002807D02168EA
:10557000FF2048620420707037700120F8BD216858
:10558000FF2048620120707037700020F8BD0000D5
:105590007F7F7F0070B504460068C168A0229143F8
:1055A000C160FEF7A7FE7D260546F60006E0FEF781
:1055B000A1FE401BB04201D9032070BD2068C06825
:1055C0008006F4D5002070BD10B50446006C00289C
:1055D00001D0FEF72FFB606C002801D0FEF72AFBFC
:1055E000206841680222914341602068416849086F
:1055F00049004160012040346074002010BD70B546
:10560000040006D025464035687C0026002802D0DC
:1056100005E0012070BD2E74204600F033F8022012
:10562000687420680168402291430160A168606845
:1056300022690843E1681143084361690122084374
:10564000A169520211400843E1690843216A0843F5
:10565000A16A084321680860A0690421000C084081
:10566000616A0843216848602168E06A086120682F
:10567000C16992009143C161666501206874002090
:1056800070BD000070B5064600682E4900252E4CFE
:1056900086B0884235D1606B891408436063206B03
:1056A000012108432063206B0840009001F0BAF804
:1056B000264C082060601020E560A06080202061FA
:1056C000400060618000A0612020E0610002206253
:1056D0001F4820602046FEF719FC34640022114662
:1056E0000A20A662FEF798FE0A20FEF77DFE002241
:1056F00011461920FEF790FE1920FEF775FE06B040
:1057000070BD14498842FAD114216846FAF777FD32
:10571000A06B012189030843A063E16A02200143D1
:10572000E162E16A019001400591072149030320EC
:10573000009103900295694604950748FEF70CFD19
:10574000DDE700000030014000100240FC120020A4
:10575000300002400038004000040050FFB581B026
:10576000044600266846068027464037787C012894
:105770007ED100293CD0002A3AD0387C012877D04D
:1057800001203874222078746665A163A287E287BD
:10579000A664E6642663A686E6860120A368C003A5
:1057A000834205D1206803680125AD03AB43036044
:1057B0000125A06A6D03A84207D123681868A84391
:1057C0001860206803682B4303606368D81FFD38A6
:1057D00002D1A06800280ED020680168490603D4D1
:1057E0000168402211430160E06800281DD032E0CA
:1057F000012005B0F0BD3E740498134600900A469F
:10580000204600F03DF9F4E7002201212046049BE8
:1058100006F07EFB002834D12068C168A06B421CD2
:10582000A2630170E08F401EE087E08F0128EBD873
:1058300014E0002201212046049B06F069FB0028A9
:105840001FD12068C068A16B0880A06B801CA0637A
:10585000E08F401EE087E08F0128EAD8A06AA842C6
:1058600005D120680168012212031143016000E0A4
:105870005CE0002201212046049B06F049FB002841
:1058800001D00320B5E7E0680028206818D0C06880
:10589000A16B0880A06B801CA063E08F401EE08796
:1058A000A06AA84217D1002201212046049B06F0DD
:1058B0002FFB00280AD0606D022108436065E0E7F5
:1058C000C168A06B421CA2630170E6E72068C06853
:1058D0006946088008886168C81FFD380CD101211D
:1058E000A068C903884202D04911884204D12068C7
:1058F000026840218A43026001207874A06AA842AD
:1059000011D120688168C943C9060CD4616D022297
:10591000114361650168A94301602068016829435A
:1059200001603E7464E73E74002062E7022060E795
:10593000FFB5054604464035687C81B0012872D128
:1059400000293CD0002A3AD0287C01286BD00120C5
:10595000287412206874002666652163A286E28698
:10596000E664A664A663A687E6870127A06A7F038C
:10597000B84207D120680168B94301602068016816
:10598000394301600121A068C903884205D120681C
:1059900001680122920311430160206801684906F1
:1059A00003D40168402211430160E0680028606868
:1059B00008D0002820D0E08E01281DD026E001204C
:1059C00005B0F0BD002802D0E08E012808D1206B80
:1059D000411C216321680078C860E08E401EE0868B
:1059E000E08E002820D0002202212046049B06F0F1
:1059F0008FFA002815D1EAE7206B21680088C8607B
:105A0000206B801C2063E08E401EE086E08E002824
:105A10000AD0002202212046049B06F079FA0028D1
:105A2000EAD00320CCE729E0A06AB84205D121687A
:105A30000868012212031043086000220221204658
:105A4000049B06F065FA2027002807D10122802157
:105A50002046049B06F05CFA002803D0606D3843B2
:105A60006065DEE7A068002803D12068C16880680F
:105A70000090012068742E740020A1E702209FE7A7
:105A8000F8B5044600276846078026464036707CF5
:105A9000012802D0707C22287ED100290CD0002A57
:105AA0000AD0002B08D0307C012875D0012030743A
:105AB000707C012802D003E00120F8BD3220707410
:105AC0006765A263A387E3872163A386E386A76450
:105AD000E7640125A06A6D03A84207D12068016828
